:020000040800F2
:10000000C8B60020995D0008514D0008534D000806
:10001000574D00085B4D00085F4D000800000000D0
:10002000000000000000000000000000634D000818
:10003000654D000800000000978F0108418F0008FF
:10004000B35D0008B35D0008B35D0008B35D000850
:10005000B35D0008B35D0008B35D0008B35D000840
:10006000B35D0008B35D0008B35D0008B35D000830
:10007000B35D0008B35D0008F15B0008155C000883
:10008000B35D0008CD5B0008B35D0008B35D0008F8
:100090002D520008B35D0008B35D0008B35D000891
:1000A000B35D0008B35D0008B35D0008B35D0008F0
:1000B000B35D0008B35D0008B35D0008B35D0008E0
:1000C000B35D0008B35D0008B35D0008B35D0008D0
:1000D000B35D0008939100085B6A0108DB740108B6
:1000E000B35D0008B35D0008B35D0008B35D0008B0
:1000F000B35D0008B35D0008B35D0008B35D0008A0
:10010000B35D0008B35D0008B35D0008B35D00088F
:10011000D15C0108B35D0008B35D0008B35D000861
:10012000F95600083F5C0008B35D0008B35D0008A5
:10013000B35D0008B35D0008B35D0008B35D00085F
:1001400083540008B35D0008B35D0008B35D000888
:10015000B35D0008B35D0008635C0008B773010875
:10016000B35D0008B35D0008B35D0008B35D00082F
:10017000B35D0008B35D0008B35D0008B35D00081F
:10018000B35D0008B35D000800F002F800F05CF811
:100190000AA090E8000C82448344AAF10107DA45E2
:1001A00001D100F051F8AFF2090EBAE80F0013F0D8
:1001B000010F18BFFB1A43F001031847F49B01001D
:1001C000149C01000A444FF0000C10F8013B13F09E
:1001D000070408BF10F8014B1D1108BF10F8015BA0
:1001E000641E05D010F8016B641E01F8016BF9D193
:1001F00013F0080F1EBF10F8014BAD1C0C1B09D1EA
:100200006D1E58BF01F801CBFAD505E014F8016B5B
:1002100001F8016B6D1EF9D59142D6D370470000ED
:100220000023002400250026103A28BF78C1FBD8FF
:10023000520728BF30C148BF0B6070471FB519F087
:10024000DDFB1FBD10B510BD18F05BFE1146FFF7BA
:10025000F5FF04F00FFC18F079FE03B4FFF7F2FF8E
:1002600003BC08F017FF000010B50020F9494871E1
:10027000642008F0F7FE10BD10B50020F549487164
:100280004FF4FA7008F0EEFE0120F34908600020F8
:10029000F249C1F8940210BD10B50020ED49487133
:1002A0004FF4FA7008F0DEFE0020EB4908600120F0
:1002B000EA49C1F8940210BD10B50120E549487122
:1002C0004FF4FA7008F0CEFE0020E3490860E349DD
:1002D000C1F894020420E249A1F8B60010BD012043
:1002E000DD4908600020DD49C1F89402DD4908704D
:1002F00070470020D84908600120D849C1F894020D
:100300000020D849087070470020D3490860D349BD
:10031000C1F894020120D3490870704770B50546B2
:1003200000240420D04908701420D049087001200E
:10033000CB49A1F8C0000020CD490870CD49087014
:10034000CD490870CD49087000214FF4FA7018F0BB
:10035000B5FBFFF791FFCA4804680BE0241F062C89
:1003600000DA0024A2B20421C64814F0D9FC0A2005
:1003700008F078FEC4480089A04203DAC348007838
:100380000128EBD04FF42F714FF4FA7018F096FB60
:10039000012008F05BFE40F226214FF4FA7018F0BD
:1003A0008DFBBB480088012802DA0120B84908808B
:1003B00048E0B7480088401EB549088002E0142094
:1003C00008F050FEA648C0884FF6FF71884203D05F
:1003D000A54800780428F2D030E0AC48007850BB43
:1003E00000214FF4FA7018F069FBFFF765FF02E097
:1003F000142008F037FE9C480078042803D1A34855
:1004000000780028F4D098480078042813D1FFF72A
:1004100033FF642008F026FE4FF42F714FF4FA707A
:1004200018F04CFB012008F011FE40F226214FF499
:10043000FA7018F043FB142008F014FE9548807CF5
:100440000328CADB924800880028B2D100214FF46B
:10045000FA7018F033FB4FF4FA7008F003FE08E06E
:10046000241DA2B20421874814F05AFC0A2008F087
:10047000F9FD7B48008BA04203DD84480078012809
:10048000EED079480570142008F0ECFD8248018810
:100490004FF4FA7018F012FB70BD70B505460024D9
:1004A00005207149087015207049087001206C49B9
:1004B000A1F8C00000206E4908706E4908706E49AE
:1004C00008706E49087000214FF4FA7018F0F6FABF
:1004D000FFF7E2FE6A4804680BE0241F062C00DAEE
:1004E0000024A2B20421674814F01AFC0A2008F084
:1004F000B9FD65484089A04203DA644800780128C4
:10050000EBD04FF42F714FF4FA7018F0D7FA0120A6
:1005100008F09CFD40F226214FF4FA7018F0CEFA54
:100520005B480088012802DA01205949088048E028
:1005300057480088401E5649088002E0142008F001
:1005400091FD4748C0884FF6FF71884203D0464866
:1005500000780528F2D030E04C48007850BB0021EC
:100560004FF4FA7018F0AAFAFFF7A6FE02E0142082
:1005700008F078FD3C480078052803D1434800780E
:100580000028F4D038480078052813D1FFF784FEFE
:10059000642008F067FD4FF42F714FF4FA7018F0E3
:1005A0008DFA012008F052FD40F226214FF4FA7036
:1005B00018F084FA142008F055FD3648807C032892
:1005C000CADB334800880028B2D100214FF4FA700A
:1005D00018F074FA4FF4FA7008F044FD08E0241D96
:1005E000A2B20421274814F09BFB142008F03AFD26
:1005F0001B48008BA04203DD244800780128EED080
:1006000019480570142008F02DFD234801884FF487
:10061000FA7018F053FA70BD10B518F044FA0020C3
:100620001E498884012008F011FD05E000201B49C7
:100630008884142008F016FD1848008E0028F5D193
:1006400018200A4908700A2014498885012008F0FA
:10065000FDFC2BE06D000020900241420000414271
:10066000388E0020010000200E00002042000020F3
:1006700012000020130000201400002015000020AC
:100680003000002000080040D05000200F00002063
:1006900016000020E48C00200400002058AF002049
:1006A0000A20FE498885142008F0DCFCFB48808E77
:1006B0000128F5D118F0D6F918F019FA0020F849F8
:1006C0000870F849087002E0142008F0CBFCF648E6
:1006D000B0F87200F5490988884207D0F0480078E0
:1006E000012803DAEF4800780128EDDBC82008F084
:1006F000B9FCED48B0F87000EB49088418F0D3F964
:100700001920EB4908700120E449888508F09EFC17
:100710000020E249C885012008F098FC0020DF494C
:10072000C884012008F092FC1A20E149087007E013
:100730000120DA4988850020C884142008F092FC42
:10074000D648408E0028F3D11820D94908700A20D5
:10075000D2498885012008F079FC05E00A20CF49BC
:100760008885142008F07EFCCC48C08E0128F5D185
:1007700018F078F918F0BBF905E00A20C749888518
:10078000142008F06FFCC848B0F87400C749098805
:100790008842F2D1C448B0F87000C349088418F008
:1007A00082F91920C24908700120BC4988850020BF
:1007B000C88507E00120B94988850020C885142034
:1007C00008F050FCB548C08E0028F3D118F08FF91E
:1007D00010BD10B518F067F90020B049C884012099
:1007E00008F034FC05E00020AC49C884142008F06F
:1007F00039FCAA48408E0028F5D11820AC49087071
:100800000A20A6498885012008F020FC05E00A207E
:10081000A2498885142008F025FCA048C08E012834
:10082000F5D118F01FF918F062F900209C49087002
:100830009C49087002E0142008F014FC9A48B0F8B3
:1008400070009A490988884207D0954800780328A3
:1008500003DA944800780328EDDBC82008F002FC96
:100860009148B0F870009049088418F01CF91920DC
:100870008F49087001208949888508F0E7FB00202E
:100880008649C885012008F0E1FB0020834988845F
:10089000012008F0DBFB1B208549087007E00120E0
:1008A0007E49888500208884142008F0DBFB7B4883
:1008B000008E0028F3D118207D4908700A2077495E
:1008C0008885012008F0C2FB05E00A20734988856D
:1008D000142008F0C7FB7148808E0128F5D118F06C
:1008E000C1F818F004F905E00A206C498885142045
:1008F00008F0B8FB6C48B0F874006C49098888426D
:10090000F2D16948B0F870006749088418F0CBF854
:100910001920674908700120604988850020C88532
:1009200007E001205D4988850020C885142008F073
:1009300099FB5A48808E0028F3D118F0D8F810BDE2
:1009400070B50446002502E0142008F08BFB5948DE
:1009500000780128F8D1584800780128F4D152488D
:10096000408F401C504948870020504908804C491E
:1009700008704C4908705149087004EB84005049D4
:1009800001EBC00040894849A1F8B40060E04A4842
:100990000078012859D145480088A0B1434805880E
:1009A0000088042804D14048C08C4649088007E0EC
:1009B0003E480088052803D13B48008D4149088006
:1009C00000203A49088004EB84003D4901EBC00057
:1009D000008B70B104EB840001EBC000C08B304988
:1009E0000978884205D104EB8400354901EBC00049
:1009F000458904EB8400324901EBC000408B70B1A3
:100A000004EB840001EBC000008C26490978884281
:100A100005D104EB84002A4901EBC000458904EBB1
:100A20008400274901EBC000808B70B104EB840087
:100A300001EBC000408C21490978884205D104EBC4
:100A400084001F4901EBC0004589142008F00AFB0F
:100A500004EB84001A4901EBC0004089A84296D1FA
:100A6000124800881049088404EB8400144901EB03
:100A7000C0004088002838DD04EB840001EBC00092
:100A800040880A2190FBF1F086B2304608F0DEFA89
:100A900004EB84000A4901EBC00015E058AF0020C8
:100AA0002300002024000020388E00203400002085
:100AB000420000200F0000200C0000202200002037
:100AC000825500200400002040880A2190FBF1F2AA
:100AD00001FB120000EBC00101EB00104FF6FF71AB
:100AE00001EA8006304608F0BDFA04EB8400FD49B7
:100AF00001EBC0008089082812D2DFE800F004056D
:100B000006070810090A0BE000BF00BF00BF00BFC6
:100B100000BF17F0C8FF012008F0A4FA00E000BFF2
:100B200000BF04EB8400EF4901EBC00000890528F9
:100B300030D2DFE800F003040F1A25002AE0EAA013
:100B400016F014F8E948808CE9490880012008F083
:100B500089FA1FE0E7A016F009F8E448C08CE449E0
:100B60000880012008F07EFA14E0E3A015F0FEFFF3
:100B7000DE48008DDE490880012008F073FA09E0A4
:100B8000DEA015F0F3FFEB20D9490880012008F022
:100B900069FA00BF00BF04EB8400D24931F830008D
:100BA00020B1012803D0022815D10AE013E000206B
:100BB000D4490870D4A015F0D9FF012008F052FAEA
:100BC00009E00120CF490870D1A015F0CFFF012026
:100BD00008F048FA00BF00BF04EB8400C14901EBF4
:100BE000C000C08C20B1012803D0022815D10AE032
:100BF00013E00020C8490870C8A015F0B7FF012015
:100C000008F030FA09E00120C3490870C5A015F0CA
:100C1000ADFF012008F026FA00BF00BF04EB8400FE
:100C2000B04901EBC000808820B1012803D0022820
:100C30000DD106E00BE017F073FF012008F012FA67
:100C400005E017F07BFF012008F00CFA00BF00BFA1
:100C500004EB8400A34901EBC000C08820B1012847
:100C600003D002280DD106E00BE0012008F0EEF9D8
:100C700017F06BFF05E0012008F0E8F917F092FF8C
:100C800000BF00BF04EB8400964901EBC000008A5E
:100C900038B104EB8401934A02EBC101088A08F0E1
:100CA000D5F904EB84008F4901EBC000C08A052808
:100CB00008D2DFE800F003082B4E710000209B49AA
:100CC000A1F840008BE017F0EEFE04EB84008549AC
:100CD00001EBC000C08A9549A1F840001620944954
:100CE000087002E00A2008F0BDF99048B0F8420010
:100CF0000128F7D117F0FBFE17208D49087000205E
:100D00008A49A1F84000A1F8420068E017F0CBFE44
:100D100004EB8400734901EBC000C08A8349A1F849
:100D2000400016208249087002E00A2008F09AF973
:100D30007E48B0F844000128F7D117F0D8FE1720FC
:100D40007B49087000207949A1F84000A1F84400CF
:100D500045E017F0A8FE04EB8400624901EBC000F7
:100D6000C08A7249A1F8400016207149087002E05B
:100D70000A2008F077F96D48B0F846000128F7D14D
:100D800017F0B5FE17206A49087000206749A1F8DE
:100D90004000A1F8460022E017F085FE04EB840035
:100DA000504901EBC000C08A6049A1F840001620FC
:100DB0005F49087002E00A2008F054F95B48B0F877
:100DC00048000128F7D117F092FE17205849087003
:100DD00000205649A1F84000A1F8480000BF00BF1C
:100DE00004EB84003F4901EBC000C089052823D2F1
:100DF000DFE800F0030E13181D0000204B49A1F896
:100E00004C00A1F84E00A1F85000A1F8520013E0E8
:100E100001204649A1F84C000EE001204349A1F809
:100E20004E0009E001204149A1F8500004E00120F2
:100E30003E49A1F8520000BF00BF04EB84002949DD
:100E400001EBC000808C05282DD2DFE800F0030400
:100E50000E18220027E002E00A2008F003F93348C8
:100E6000B0F854000028F7D01DE002E00A2008F096
:100E7000F9F82E48B0F856000028F7D013E002E049
:100E80000A2008F0EFF82948B0F858000028F7D0F9
:100E900009E002E00A2008F0E5F82448B0F85A001A
:100EA0000028F7D000BF00BF04EB84000D4901EB20
:100EB000C000808A20B1012803D0022807D103E0B6
:100EC00005E0FFF7A9FB02E0FFF783FC00BF00BFCE
:100ED00004EB8400034901EBC000808908282FD26D
:100EE00028E000008255002031B5B200388E002085
:100EF0000400002032B5B20033B5B200B3ACB5CDBA
:100F0000CBD9000009000020D4B6BFAA0000000021
:100F1000D4B6B9D8000000000B000020BAF3BFAA75
:100F200000000000BAF3B9D80000000058AF00205C
:100F300042000020DFE800F0040506111C77274F6F
:100F400071E070E017F08EFD012008F08BF817F0CB
:100F5000CEFD012008F086F865E017F08EFD012037
:100F600008F080F817F0C3FD012008F07BF85AE084
:100F700017F08EFD012008F075F817F0B8FD01207C
:100F800008F070F84FE004EB8400FE4901EBC0006C
:100F9000408AFD490880FD480078FD49087001201D
:100FA00008F060F80120FB49087004EB8400F54963
:100FB00001EBC000808C20B9F5480078FFF7AEF94E
:100FC00008E004EB8401EF4A02EBC10191F8240030
:100FD000FFF7A4F927E004EB8400EA4901EBC00025
:100FE000408AE9490880E9480078E9490870012009
:100FF00008F038F80120E749087004EB8400E14963
:1010000001EBC000808C20B9E1480078FFF745FA79
:1010100008E004EB8401DB4A02EBC10191F82400F3
:10102000FFF73BFA00BF00BF70BD10B508F008F92C
:10103000D948008805287DD0D748B0F86800022834
:1010400079D00520D4490880002048808880C88055
:101050007A200881782048814FF4A0708881002090
:10106000C8810B2008824FF4967048820020888245
:101070000A20C88240F28A200883022048834FF465
:10108000967088830020C88308844884FA20888466
:101090004FF4A070C8844FF416700885002048856E
:1010A0008885C88507200886022048860020888613
:1010B0000120C886032008870220488700208887EF
:1010C000C887A1F84000A1F84200A1F84400A1F8A7
:1010D0004600A1F84800A1F84A00A1F84C00A1F888
:1010E0004E00A1F85000A1F85200A1F85400A1F858
:1010F0005600A1F85800A1F85A00A1F85C00A1F828
:101100005E00A1F86000A1F86200A1F86400A1F8F7
:1011100066000120A1F868000020A1F86A00A1F88B
:101120006C00A1F86E00A1F87000A1F87200A1F89F
:10113000740001E034E157E00C20A1F876002D2086
:10114000A1F878003520A1F87A003A20A1F87C00B7
:101150004420A1F87E004820A1F880005020A1F88A
:1011600082005A20A1F884006420A1F88600732030
:10117000A1F888008020A1F88A008420A1F88C00C2
:101180008C20A1F88E00A020A1F89000A520A1F845
:101190009200AA20A1F894003E20A1F896009B207E
:1011A000A1F898000020A1F89A00A1F89C00A1F8ED
:1011B0009E00A1F8A000A1F8A200A1F8A400A1F847
:1011C000A600A1F8A800A1F8AA00A1F8AC00A1F817
:1011D000AE00A1F8B000A1F8B2001D20A1F8C40033
:1011E0002F20A1F8C600CCE005206B490880002024
:1011F00048808880C880088148814FF4A070888129
:101200000020C8810B2008824FF49670488200208D
:1012100088820A20C88240F236200883372048831B
:1012200005208883FA20C883002008844884FC2095
:10123000888440F24F10C8844FF41670088500204F
:1012400048858885C885072008861B204886002099
:1012500088860120C886032008870220488700204E
:101260008887C887A1F84000A1F84200A1F844008F
:10127000A1F84600A1F84800A1F84A00A1F84C00E6
:10128000A1F84E00A1F85000A1F85200A1F85400B6
:10129000A1F85600A1F85800A1F85A00A1F85C0086
:1012A000A1F85E00A1F86000A1F86200A1F8640056
:1012B000A1F866000220A1F868000020A1F86A00E9
:1012C000A1F86C00A1F86E00A1F87000A1F87200FE
:1012D000A1F874000A20A1F876002D20A1F878006A
:1012E0003020A1F87A003420A1F87C004120A1F838
:1012F0007E004C20A1F880005020A1F882005A20E6
:10130000A1F884006420A1F886006E20A1F888006E
:101310007820A1F88A008020A1F88C008C20A1F808
:101320008E00A020A1F89000A520A1F89200AA208C
:10133000A1F894003A20A1F896009B20A1F898000B
:101340000020A1F89A00A1F89C00A1F89E00A1F845
:10135000A000A1F8A200A1F8A400A1F8A600A1F89D
:10136000A800A1F8AA00A1F8AC00A1F8AE00A1F86D
:10137000B000A1F8B2001C20A1F8C4002A20A1F8F6
:10138000C6000BE082550020160000200E00002051
:101390000D0000200F000020D050002007F061FF5A
:1013A000FE48B0F86800FE49A1F86800FD490870E1
:1013B00008460078401C0870F848B0F87800F849F2
:1013C000A1F87800F548B0F87A00A1F87A00F3485F
:1013D000B0F87C00A1F87C00F048B0F87E00A1F8DD
:1013E0007E00EE48B0F88000A1F88000EB48B0F82D
:1013F0008200A1F88200E948B0F88400A1F88400D6
:10140000E648B0F88600A1F88600E448B0F8880005
:10141000A1F88800E148B0F88A00A1F88A00DF4806
:10142000B0F88C00A1F88C00DC48B0F88E00A1F870
:101430008E00DA48B0F89000A1F89000D748B0F8D4
:101440009200A1F89200D548B0F89400A1F8940059
:10145000D248B0F89600A1F89600D048B0F89800AD
:10146000A1F89800CD49098ACD4A1182084618F0A2
:1014700057F8CD4AC2E90601C849498AC84A51828B
:10148000084618F04DF8C84AC2E90801C349898ADC
:10149000C34A9182084618F043F8C34AC2E90A01D8
:1014A000BE49498BBE4A5183084618F039F8BF4AF5
:1014B000C2E90601B949898BB94A9183084618F0F7
:1014C0002FF8BA4AC2E90801B449C98BB44AD1839A
:1014D000084618F025F8B54AC2E90A01AF488089E4
:1014E000AF498881AD48C08AC882AC48808C888466
:1014F000AA48C08CC884A948008D0885A748008EDA
:101500000886A648408EA1F89A000020A1F8B200F3
:10151000A248C08EA1F87000A048008FA1F8720008
:101520009E48408FA1F874009C48008B08839B481C
:10153000B0F87600A1F8760008F074FB984880892E
:101540009B4908809648C08A9A4908809448808CB4
:10155000994908809248C08C984908809048008D2D
:10156000974908808D4800898D49A1F8C4008B48AF
:101570004089A1F8C600088E07F07AFE8849088ED7
:1015800007F099FE08F040F910BD10B58449B1F894
:101590009A00192107F05BFE8148B0F8B2007F493C
:1015A00088867F49B1F8B2001A2107F050FE052065
:1015B0007B49A1F8B6000220A1F8B20008F032FB86
:1015C0000120804908702C207549A1F8400010BD09
:1015D00000BF31E002E00A2007F044FD7048B0F897
:1015E000B2000028F7D00026002400256C48A0F89F
:1015F000CC60A0F8C840A0F8CA5018E07248007843
:1016000008B1681CC5B23C2D02D10025601CC4B2D3
:101610003C2C02D10024701CC6B2012007F016FD3C
:101620005F48A0F8CC60A0F8C840A0F8CA505C4859
:10163000B0F8B2000028E1D1CCE70CE063480088A4
:10164000012805D108F072FB0121614807F02EF94D
:10165000142007F007FDF1E75DE05B480078012802
:1016600056D14F4880795B4908705B48007888B153
:101670000846007870B9322007F0F4FC554800782D
:1016800040B956480078642804DC54480078401C6F
:10169000524908704F4800784F4908704048007A16
:1016A0004F4908704F48007888B10846007870B9F3
:1016B000322007F0D7FC4A48007840B94A48007801
:1016C000642804DC48480078401C474908704448B6
:1016D0000078444908703248807A44490870444888
:1016E000007888B10846007870B9322007F0BAFC5B
:1016F0003E48007840B93F480078642804DC3D4803
:101700000078401C3B490870384800783849087018
:10171000142007F0A7FCA0E7002400BF2BE0002462
:1017200004E0642007F09EFC601CC4B232480068EC
:1017300008B9192CF5D1192C1AD112202F4908708B
:1017400008201749A1F84000012007F07FFC00BFE6
:10175000BFF34F8F2A48006800F4E060294908432E
:10176000001D27490860BFF34F8F00BF00BFFEE791
:10177000142007F077FCD2E700BF52E02248407CFB
:10178000224908700846007830B90548B0F8C20010
:1017900010B94FF461703BE03DE00000D0500020F4
:1017A000388E002032030020D8AF002038B000204F
:1017B00004000020400000204C0000204E000020CB
:1017C000500000200E0000200C0000202E030020FE
:1017D000286402401C0000201D0000202200002080
:1017E0001E00002020000020230000201F000020F9
:1017F00021000020240000201082424242000020EC
:101800000CED00E00000FA05B88D00200800002073
:1018100003F00FFC02E00120FE490860142007F0ED
:1018200021FCABE71CB5002400250026A146A246FA
:10183000A3460020019000278046009000BF39E1B8
:10184000F548007801287DD1009801280CD1F34893
:10185000006848B9F2480078012805D117F023F94B
:101860000220F049A1F8B600EC480068C0B2009030
:10187000ED480078012866D1E84808300068012862
:101880000ED1B8F1000F19D1FEF73EFD0920E54950
:10189000A1F8B6004FF001080F20E44908700DE0F0
:1018A000B8F1010F0AD1FEF71AFD0520DD49A1F8B4
:1018B000B6004FF000081020DC490870DC480078C2
:1018C000002837D1DB480078012833D100240026D6
:1018D0004FF000094FF0000A00200190BBF1000F0B
:1018E00007D1FEF7FCFC0520CE49A1F8B6004FF069
:1018F000010BCA481830006810B1012819D10BE05B
:101900004DB9FEF701FD0220C649A1F8B600012538
:101910000F20C64908700CE0012D09D1FEF7DFFC4D
:101920000520C049A1F8B60000251020BF49087065
:1019300000BF00BFBE480078012837D1BD480078FD
:10194000A0BB01E082E082E000250026A946AB466C
:1019500000200190BAF1000F07D1FEF7C0FC05206E
:10196000B049A1F8B6004FF0010AAC482830006831
:1019700010B1012819D10BE04CB9FEF7C5FC0220CB
:10198000A849A1F8B60001240F20A84908700CE06E
:10199000012C09D1FEF7A3FC0520A249A1F8B6004D
:1019A00000241020A149087000BF00BFA0480078A3
:1019B000B0BBA048007898BB00240025A146A246F1
:1019C000A346019838B9FEF78AFC05209549A1F88D
:1019D000B600012001909148183000689649D1F86E
:1019E0003812084010B1012819D10BE04EB9FEF7AA
:1019F0008BFC02208B49A1F8B60001260F208B49F1
:101A000008700CE0012E09D1FEF769FC052085491C
:101A1000A1F8B600002610208449087000BF00BF5E
:101A200083480078012842D18248007801283ED1BD
:101A3000B9F1000F07D1FEF752FC05207949A1F852
:101A4000B6004FF001090024002500262FE07B4856
:101A50000078012803D07A480078012823D17948FA
:101A60000078F8B96D481030006818B16B48143030
:101A7000006858B9B7B9FEF747FC07206949A1F8D3
:101A8000B60001270F206949087010E0012F0ED120
:101A9000FEF72FFC05206349A1F8B60000271020AF
:101AA0006249087003E00024002500260027142066
:101AB00007F0D8FAC4E6002400BFEEE05948008CD5
:101AC000614908805748B0F8B40048845548C08838
:101AD000488054480089888052484089C8805B48C3
:101AE000008848824D481430006888825248D0F8F7
:101AF0002002C8825048D0F81C0208834E48D0F813
:101B0000140248834C48D0F8380288834A48D0F8F9
:101B10002802C8834848D0F8180208844148008E3B
:101B200008874048B0F89A0048873D480078088107
:101B30003948007808820846808F372804D116F08B
:101B4000D6FF0020404988873F48C08F372804D1FE
:101B500016F0A9FF00203C49C8873D4800780128BD
:101B600009D12F48007830B93A48807C18B9012053
:101B7000354948810CE036480078012808D12848CA
:101B8000007828B93348807C10B100202E49488164
:101B90002F480078022809D12148007830B92E4812
:101BA000807C18B90120284988810CE028480078F9
:101BB000022808D11A48007828B92748807C10B13B
:101BC00000202149888122480078032809D114483F
:101BD000007830B92148807C18B901201A49C881A1
:101BE0000CE01B480078032808D10D48007828B97C
:101BF0001A48807C10B100201349C881064800783B
:101C000070BB114840891049898908440E49C98927
:101C1000084426E0A00240420C000020108242420C
:101C20000F000020388E002013000020420000200A
:101C30000A00002009000020008042421400002019
:101C4000150000200B00002058AF002004000020E9
:101C50000E000020E48C0020F98C00200E8D002066
:101C600005E020B10020FE4948818881C881601CC0
:101C700084B2642C04D100240020F949A1F84A0060
:101C8000F748B0F84A0008B9012000E00020F54903
:101C9000A1F8C200142007F0E5F90FE700BF04E047
:101CA00004F072F8642007F0DDF9F9E700BF1FE1E6
:101CB000ED480078012830D1EC4800780128FAD1AD
:101CC000E848B0F8B200012828D10020E84908709F
:101CD0000220E8490870E348C08CE74908800020EA
:101CE000E04908844887002404E02046FEF728FEE7
:101CF000601C84B2DB48008FA042F6DC0020D9498A
:101D0000A1F8B200D649A1F84000A1F84C00A1F812
:101D10004E00A1F85000A1F85200E6E0D148B0F81A
:101D2000B2000228F9D10020D14908700220D1491F
:101D30000870CC48C08CD04908800020C94908846C
:101D4000A1F89E000024B1E0C648B0F89E00401CF7
:101D5000C449A1F89E0004EB8400C84901EB40008F
:101D6000408830B1012821D0022848D003286FD103
:101D70006FE004EB8400C14931F81000B9490886CE
:101D8000088E07F075FAB749088E07F094FA00201C
:101D9000B4494887002504E02846FEF7D1FD681CB9
:101DA00085B2B048008FA842F6DC7CE004EB8400EA
:101DB000B24931F8106019E0AA4806860146088E3B
:101DC00007F056FAA749088E07F075FA0020A549D2
:101DD0004887002504E02846FEF7B2FD681C85B25E
:101DE000A048008FA842F6DC701C86B204EB840089
:101DF000A24901EB40008088B042DDDA53E004EBF9
:101E000084009E4931F8106019E096480686014624
:101E1000088E07F02DFA9349088E07F04CFA00203F
:101E200090494887002504E02846FEF789FD681C94
:101E300085B28C48008FA842F6DC701E86B204EB97
:101E400084008E4901EB40008088B042DDDD2AE04D
:101E500028E004EB8400894931F8100081490886A4
:101E6000088E07F005FA7F49088E07F024FA00264D
:101E70000FE000207B494887002504E02846FEF754
:101E80005FFD681C85B27748008FA842F6DC701CA5
:101E900086B204EB8400794901EB40008088B042AF
:101EA000E7DC00E000BF00BF601C84B26D48B0F802
:101EB0009C00A0423FF748AF00206A49A1F8B20059
:101EC0006749A1F84000A1F84C00A1F84E00A1F824
:101ED0005000A1F852006A48007830B110206149E2
:101EE000A1F840000020664908700A2007F0BAF8FF
:101EF000DEE68AB000BFFFF798F8012058498884D1
:101F0000C884088548858885C88501F0F8B9554892
:101F1000B0F8400009382F2881F0EC81DFE810F09C
:101F20002F00EA09B600EA0900011E016801EA096A
:101F3000EA09EA09D201D301EA09EA09CB01D4018D
:101F4000D5011004EA09EA09EA09EA09EA09EA09F5
:101F5000EA09EA090105020503050405EA099C07E7
:101F6000EA09A507D407E9071008EA0998086408F0
:101F7000BB0802092E095A098609A209CE0968E0A0
:101F800040480079012802D116F05BFD21E03D4870
:101F90004079012802D116F049FD1AE03948407A0B
:101FA000012802D116F0D1FD13E03648807A0128CD
:101FB00002D116F0F7FD0CE03248407B012802D137
:101FC00016F0AEFD05E02F48807B012801D116F008
:101FD000B5FD25480078012820D12A48C07A01287B
:101FE00001D116F084FD2748007B012802D116F0AC
:101FF0005AFD13E023488079012802D116F032FD02
:102000000CE02048C079012802D116F036FD05E029
:102010001C48007A012801D116F03AFD1148808948
:1020200015490988884211D00E48808912490880D4
:10203000084601884FF4FA7016F040FD0E480088FB
:10204000114988818889062107F001F90A2007F0E3
:1020500009F80448B0F84000092891D001F04BB9C4
:1020600058AF0020388E00200C0000200F00002008
:102070000900002011000020040000203269002027
:1020800000000020B88D0020D05000203DE0FE4828
:10209000808CFE490880FC48C08CFD490880FA48C5
:1020A000008DFC490880F848808CFB498884F648FC
:1020B000C08CC884F448008D0885F34890F8680007
:1020C000401CF6490870F048B0F86800F249A1F8E1
:1020D0006800ED48B0F87000C886EB48B0F87200B0
:1020E0000887E948B0F874004887E748B0F8C400AA
:1020F0000881E548B0F8C6004881E348B0F87600AA
:10210000A1F876000A2006F0ADFFDF48B0F84000E5
:102110000B28BCD065220021DF4814F07FFB9DE72F
:10212000DF480068DF494876DF48D0F81C0288762F
:10213000DD48D0F82002C876DB48D0F814020877D2
:10214000D948D0F828024877D748D0F8380288779D
:10215000D548D0F8180281F82E007FE7D148C07F1B
:10216000012803D10020D14988842BE0CD4890F884
:102170002000012803D10020CC49C88422E0C948AE
:1021800090F82100012803D10020C849088519E0F2
:10219000C44890F82200012803D10020C349488593
:1021A00010E0C04890F82300012803D10020BF4967
:1021B000888507E0BB4890F82400012802D1002060
:1021C000BA49C885B94890F83000B64981F8250069
:1021D000B64890F8320081F82600B44890F83400F0
:1021E00081F82700B14890F8360081F8280035E7DB
:1021F00056E0A549088A17F093F9AD4AC2E90601ED
:10220000A149488A17F08CF9A94AC2E908019E49F8
:10221000888A17F085F9A64AC2E90A019A49488BCB
:1022200017F07EF9A34AC2E906019749888B17F097
:1022300077F9A04AC2E908019349C88B17F070F9F1
:102240009C4AC2E90A019048C08A9B4908808E488E
:1022500080899A490880084601884FF4FA7016F080
:102260002DFC8948C08A8C49C8828748008A088228
:102270008548408A48828448808A88828248408B88
:1022800048838148808B88837F48C08BC8837E4881
:10229000808988817C48008B08830A2006F0E2FE52
:1022A0007948B0F840000F28A3D05A2200217A487C
:1022B00014F0B4FAD2E67448008E10B901207249C5
:1022C0000886CBE600BF00BF00BF1EE26E48B0F834
:1022D0004000222847D101206B49A1F86A003DE067
:1022E0006948B0F86A0018B901206749A1F86A0086
:1022F0006548B0F86A00B0F5FA7F03DD0120624955
:10230000A1F86A006048B0F86A006D4909888842FF
:1023100007D05D49B1F86A0006F0AAFF5A49A1F852
:102320006E005948B0F85200012814D15649B1F84E
:102330006A0006F0C0FF5449088E06F0DFFF07F080
:102340000FF85148008F10B101204F4948870020F5
:102350004D49A1F852000A2006F084FE4A48B0F820
:1023600040002228BCD04848B0F85200022843D18F
:102370004548008F401C444908870846008F48871D
:1023800000205049088007F0A1F930E04D4800884E
:1023900018B14C4800883C4908843B48B0F84A00D2
:1023A00001280ED100203849A1F84A0007F0C2F8F0
:1023B0003549088E06F0A2FF00203349A1F85200EB
:1023C00012E03148B0F84A0002280DD100202E4911
:1023D000A1F84A000846008F401E08870846008F73
:1023E00048870020A1F852000A2006F03BFE26484C
:1023F000B0F852000228C9D02348B0F85200032890
:102400007ED12148008F401C1F4908870846008F55
:1024100008B90120488700202A49088007F056F9AA
:1024200077E02848008818B12648008816490884B3
:102430001548B0F84A0001284FD100201249A1F8F0
:102440004A000846048F16E0002510E0601E00EBED
:1024500080001D4901EBC00030F8150004EB840139
:10246000194A02EBC10121F81500681C85B2142D30
:10247000ECDB601E84B20448408FA042E4DD07F02C
:1024800059F80149088E21E0388E00204C000020C8
:102490004E00002050000020D050002032030020C9
:1024A00024824242B88D00200080424258AF002072
:1024B000D8AF002038B000204000002004000020E9
:1024C000C8000020340000208255002006F016FFCE
:1024D0000020FE49A1F8520018E0FC48B0F84A007C
:1024E000022813D10020F949A1F84A000846008FBC
:1024F000401E08870846408F012803D1002000E0D5
:102500000CE048870020F149A1F852000A2006F0AB
:10251000A9FDEE48B0F85200032882D0EB48B0F88D
:102520005200042835D10020E94908802CE0E84811
:10253000008818B1E6480088E4490884E348B0F808
:102540004A0001280ED10020E049A1F84A0006F017
:10255000F1FFDE49088E06F0D1FE0020DB49A1F82C
:1025600052000EE0D948B0F84A00022809D10020F4
:10257000D649A1F84A0006F0F3FE0020D349A1F89D
:1025800052000A2006F06EFDD048B0F85200042830
:10259000CDD0CE48B0F8520005284CD1CB48008FA2
:1025A000002844DDC948008F002823DDC748008F7C
:1025B000C649498F88421DD0C448448F16E0002583
:1025C00010E004EB8400C34901EBC00030F81510A3
:1025D000601E00EB8000BF4A02EBC00020F815101F
:1025E000681C85B2142DECDB601C84B2B748008FE8
:1025F000A042E4DCB548008F401EB4490887084675
:10260000008F10B9002048870BE0B048008F401CB5
:10261000AE49498F884204D1AC48408F401EAB4937
:102620004887AA49088E06F069FE06F099FE002048
:10263000A649A1F85200A548B0F85200D8BBA3485B
:10264000008F002808DDA148408F28B901209F494C
:10265000488706F085FE05E09C48008F10B90020F1
:102660009A4948879948008E9B490988884210D02A
:102670009648008E984908809449088E06F01BFE03
:102680009248008F002802DD01209049488706F01B
:1026900067FE8E48B0F84600012811D100208B4912
:1026A000A1F846000846408F012805DD0846408F06
:1026B000401E488704E025E08448008F834948870E
:1026C0008248B0F84600022814D100207F49A1F8C2
:1026D00046000846408F098F884205DA7B48408FC4
:1026E000401C7A49488705E07848408F10B10120A6
:1026F000764948877548008F10B906F0E7FF01E07A
:1027000006F02EFE0A2006F0ADFC7048B0F840003E
:1027100013283FF4DBAD6D48B0F840001428F8D022
:102720006A48B0F840001828F3D06848B0F8400074
:102730001928EED06548B0F840002228E9D08DE491
:102740006648B0F878006149B1F8781088427CD1C9
:102750006248B0F87A005D49B1F87A10884279D1C0
:102760005E48B0F87C005949B1F87C10884271D1BC
:102770005A48B0F87E005549B1F87E10884269D1B8
:102780005648B0F880005149B1F88010884261D1B4
:102790005248B0F882004D49B1F88210884259D1B0
:1027A0004E48B0F884004949B1F88410884251D1AC
:1027B0004A48B0F886004549B1F88610884249D1A8
:1027C0004648B0F888004149B1F88810884241D1A4
:1027D0004248B0F88A003D49B1F88A10884239D1A0
:1027E0003E48B0F88C003949B1F88C10884231D19C
:1027F0003A48B0F88E003549B1F88E10884229D198
:102800003648B0F890003149B1F89010884221D193
:102810003248B0F892002D49B1F89210884219D18F
:102820002E48B0F894002949B1F89410884211D18B
:102830002A48B0F896002549B1F89610884209D187
:102840002648B0F89800214900E003E0B1F898105C
:10285000884265D01D48B0F878002049A1F878007A
:102860001A48B0F87A00A1F87A001848B0F87C004D
:10287000A1F87C001548B0F87E00A1F87E0013484E
:10288000B0F88000A1F880001048B0F88200A1F8EC
:1028900082000E48B0F88400A1F884000B48B0F81C
:1028A0008600A1F886000948B0F88800A1F88800E1
:1028B0000648B0F88A00A1F88A000448B0F88C00F5
:1028C000A1F88C000148B0F88E0009E0388E002095
:1028D0003400002082550020C6000020D050002087
:1028E000A1F88E00F748B0F89000A1F89000F548E4
:1028F000B0F89200A1F89200F248B0F89400A1F864
:102900009400F048B0F89600A1F89600ED48B0F8B1
:102910009800A1F8980011223C21EB4813F07EFFAB
:102920001BE400BF00BF00BF80E2E648B0F8AA0089
:10293000F0BBE448B0F89C0000280ADDE148B0F89C
:102940009E0030B90120DF49A1F89E0006F05CFF2F
:102950000DE0DC48B0F89C0048B90020D949A1F846
:102960009E00A1F8A000A1F8A400A1F8A200D548FB
:10297000B0F89A00D5490988884206D0D148B0F805
:102980009A00D249088006F03FFFCE48B0F8A80070
:10299000012818D10020CB49A1F8A8000846B0F8BA
:1029A0009E00012808DD0846B0F89E00401E00E0A9
:1029B00032E0A1F89E0026E0C248B0F89C00C14970
:1029C000A1F89E001FE0BF48B0F8A80002281AD165
:1029D0000020BC49A1F8A8000846B0F89E00B1F854
:1029E0009C10884207DAB748B0F89E00401CB549F1
:1029F000A1F89E0007E0B348B0F89E0018B101208E
:102A0000B049A1F89E00AF48B0F89C0010B906F09C
:102A1000EFFF01E006F0C5FFAA48B0F84000242807
:102A200045D10120A749A1F8AC003BE0A548B0F88A
:102A3000AC0018B90120A349A1F8AC00A148B0F836
:102A4000AC00B0F5FA7F03DD01209E49A1F8AC008F
:102A50009C48B0F8AC009E490988884207D0994943
:102A6000B1F8AC0006F0B7FE9649A1F8AE00954863
:102A7000B0F8AA00012812D19249B1F8AC0006F0D2
:102A80002FFF06F04FFE8F48B0F89C0018B10120D0
:102A90008C49A1F89E0000208A49A1F8AA000A20CA
:102AA00006F0E0FA8748B0F840002428BED08548F8
:102AB000B0F8AA0002286ED18248B0F89C00401CF1
:102AC0008049A1F89C000846B0F89C00A1F89E003F
:102AD00006F08EFF7AE07B48B0F8A20030B1012802
:102AE00005D0022820D0032843D139E042E07548C0
:102AF000B0F8A4007349B1F8A010884213DC714803
:102B0000B0F8A000B0F5FA7F06D16E48B0F8A0008A
:102B10006C49A1F8A40006E06A48B0F8A000401C87
:102B20006849A1F8A40025E06648B0F8A40065490A
:102B3000B1F8A010884212DB6248B0F8A00001286A
:102B400006D16048B0F8A0005E49A1F8A40006E0F4
:102B50005C48B0F8A000401E5A49A1F8A40009E062
:102B60005848B0F8A40018B901205649A1F8A400AB
:102B700000E000BF00BF5348B0F8A60001280BD109
:102B800000205049A1F8A60006F0CCFD00204D49D8
:102B9000A1F8AA0017E01FE04A48B0F8A6000228F2
:102BA00011D100204749A1F8A6000846B0F89C00C2
:102BB000401EA1F89C000846B0F89C00A1F89E00B9
:102BC0000020A1F8AA000A2006F04CFA3D48B0F80F
:102BD000AA0002283FF47FAF3A48B0F8AA000328C1
:102BE00078D13848B0F89C00401C3649A1F89C00C8
:102BF0000846B0F89E0010B90120A1F89E0006F02A
:102C0000F7FE86E02F48B0F8A20030B1012805D0C9
:102C1000022820D0032843D139E042E02948B0F807
:102C2000A4002849B1F8A010884213DC2548B0F868
:102C3000A000B0F5FA7F06D12248B0F8A0002149E3
:102C4000A1F8A40006E01F48B0F8A000401C1D49F0
:102C5000A1F8A40025E01B48B0F8A4001949B1F878
:102C6000A010884212DB1748B0F8A000012806D156
:102C70001448B0F8A0001349A1F8A40006E01148D8
:102C8000B0F8A000401E0F49A1F8A40009E00D48CB
:102C9000B0F8A40018B901200A49A1F8A40000E086
:102CA00000BF00BF0748B0F8A600012813D10020DC
:102CB0000449A1F8A60006F0A5FE00200149A1F8EC
:102CC000AA0023E0388E002048510020CA000020CE
:102CD000CC00002023E0FE48B0F8A600022815D161
:102CE0000020FB49A1F8A6000846B0F89C00401E51
:102CF000A1F89C000846B0F89E00012802D10020EF
:102D0000A1F89E000020F249A1F8AA000A2006F0CE
:102D1000A9F9EF48B0F8AA0003283FF473AFEC48D4
:102D2000B0F8AA00042873D16DE0E948B0F8A20019
:102D300030B1012805D0022820D0032843D139E042
:102D400042E0E348B0F8A400E149B1F8A01088429D
:102D500013DCDF48B0F8A000B0F5FA7F06D1DC48FC
:102D6000B0F8A000DA49A1F8A40006E0D848B0F80D
:102D7000A000401CD649A1F8A40025E0D448B0F832
:102D8000A400D349B1F8A010884212DBD048B0F8B3
:102D9000A000012806D1CE48B0F8A000CC49A1F887
:102DA000A40006E0CA48B0F8A000401EC849A1F837
:102DB000A40009E0C648B0F8A40018B90120C4492D
:102DC000A1F8A40000E000BF00BFC148B0F8A60011
:102DD00001280AD10020BE49A1F8A60006F0A2FCF5
:102DE0000020BB49A1F8AA000AE0B948B0F8A60043
:102DF000022805D10020B649A1F8A600A1F8AA0032
:102E00000A2006F02FF9B248B0F8AA0004288CD0A6
:102E1000AF48B0F8AA00052805D106F077FE0020DB
:102E2000AB49A1F8AA000A2006F01CF9A848B0F89E
:102E3000400023283FF479ADA548B0F8400024288D
:102E4000F8D0A348B0F840002528F3D0A048B0F847
:102E500040002628EED04EE29D48B0F89A0018B9FE
:102E600001209B49A1F89A0045E227E09848B0F874
:102E7000BC0001281FD19649088E182106F0E7F9F9
:102E80009348B0F8B200934988869149B1F8B200EE
:102E90001A2106F0DCF900208D49A1F8BC0006F0EB
:102EA000C1FE01208A49A1F8B2008B4908702C208C
:102EB0008749A1F840000A2006F0D4F88448B0F809
:102EC00040002A28D2D016E20DE08148B0F8BA00BE
:102ED000012805D1FEF759FB00207D49A1F8BA0071
:102EE0000A2006F0BFF87A48B0F840002B28ECD052
:102EF00001E21FE079480079012802D115F0A1FD17
:102F000005E076484079012801D115F08FFD74481D
:102F1000007801280BD17148C07A012801D115F041
:102F2000E6FD6E48007B012801D115F0BCFD0A20AA
:102F300006F098F86648B0F840002C28DAD0DAE1BC
:102F40004CE06348B0F8B800012844D10020604943
:102F5000A1F8B800A1F8B200A1F8B60015F0A3FDE1
:102F60000120604988855C49087000205D49A1F80E
:102F70004000A1F84C00A1F84E00A1F85000A1F8C3
:102F800052005948007838B110205149A1F840004A
:102F900000205549087003E010204D49A1F8400079
:102FA00009A952480EF076FB09A8032100220592D8
:102FB000CDE906210890104680210C224C4BCDE92A
:102FC0000132CDE903100B2000234A4A4AA10090A8
:102FD00046480EF00BFA0A2006F044F83C48B0F8D8
:102FE00040002D28ADD086E100203949A1F8D0005D
:102FF00028E03748B0F8D200012820D13448B0F892
:10300000CE0041F60A2188420AD101203049A1F8B8
:10301000D00006F01BF808202D49A1F840000AE076
:1030200000202B49A1F8D000C82006F01BF8022090
:103030002749A1F8D00000202549A1F8D20014208A
:1030400006F010F82248B0F840003028D1D052E104
:103050001BE01F48B0F8D400012813D11C48B0F879
:10306000CE0041F60A21884204D108201849A1F86F
:10307000400003E030201649A1F840000020144928
:10308000A1F8D400142005F0EDFF1148B0F840007D
:103090002F28DED02FE101200D49A1F89A003BE056
:1030A0000B48B0F89A000A49A1F8D8000846B0F8D1
:1030B000D8004FF6FF7101EAC0000549A1F8DA0017
:1030C0000846B0F8D600012823D100201AE00000FD
:1030D000388E0020D05000200E000020B88D002037
:1030E0000C00002058AF002000000020201C002011
:1030F000E41C0020AD1C00085461736B3520746122
:10310000736B0000A1F8D6003120FD490870FEF76E
:103110003CFA142005F0A6FFFA48B0F84000312828
:10312000BED0E8E00720F749A1F89A0020E0F54872
:10313000B0F89A00801FF349A1F8DE000846B0F805
:10314000DE004FF6FF7101EAC000EE49A1F8E00091
:103150000846B0F8DC00012807D10020A1F8DC0007
:103160003220E7490870FEF710FA142005F07AFFC4
:10317000E448B0F840003228D9D0BCE00D20E14945
:10318000A1F89A0020E0DF48B0F89A000C38DD4939
:10319000A1F8E4000846B0F8E4004FF6FF7101EA38
:1031A000C000D849A1F8E6000846B0F8E2000128BE
:1031B00007D10020A1F8E2003320D1490870FEF7C2
:1031C000E4F9142005F04EFFCE48B0F84000332853
:1031D000D9D090E01320CB49A1F89A0020E0C9484B
:1031E000B0F89A001238C749A1F8EA000846B0F8CA
:1031F000EA004FF6FF7101EAC000C249A1F8EC00F5
:103200000846B0F8E800012807D10020A1F8E8003E
:103210003420BB490870FEF7B8F9142005F022FFEE
:10322000B848B0F840003428D9D064E01920B54936
:10323000A1F89A0010E0B348B0F8EE00012808D1D8
:103240000020B049A1F8EE003520AD490870FEF726
:103250009CF9142005F006FFAA48B0F84000352874
:10326000E9D048E01C20A749A1F89A0020E0A54831
:10327000B0F89A001B38A349A1F8F2000846B0F84C
:10328000F2004FF6FF7101EAC0009E49A1F8F40078
:103290000846B0F8F000012807D10020A1F8F0009E
:1032A000362097490870FEF770F9142005F0DAFE11
:1032B0009448B0F840003628D9D01CE0222091492B
:1032C000A1F89A0010E08F48B0F8F600012808D164
:1032D00000208C49A1F8F600372089490870FEF7D4
:1032E00054F9142005F0BEFE8648B0F84000372897
:1032F000E9D000E000BF00BF142005F0B3FEFEF7E8
:1033000006BE86B04FF0000AD34600200590049018
:1033100003900026002702900190009040F255246F
:103320004FF4FA758046814600BF5FE17548B0F8FA
:10333000B20000287ED17448007801287BD1BAF110
:10334000000F05D17148C078012801D115F0ABFB01
:103350006E48807820B96E48007808B915F0C7FB30
:103360006B4800780028E9D16848007901280AD123
:1033700066484079012806D1029820B9FCF79CFFE5
:10338000012002901AE0BBF1010F0AD15F480079D9
:1033900038B9FCF771FF0D205E49087000200290DB
:1033A0000CE00598012809D15848407930B9FCF75C
:1033B00073FF0E205749087000200290534880790F
:1033C000F8B9019818B9FCF74FFF01200190A01E31
:1033D00084B2022C00DA0224224604214E4811F065
:1033E0009FFCB4F5C87F4FDAA81C85B240F2B63016
:1033F000854200DD05462A460221474811F090FC2F
:1034000042E04248C07920BB009818B9FCF72CFF75
:1034100001200090A01C84B240F2E630844200DD1E
:103420000446224604213C4811F07AFCB4F52F7F73
:103430002ADD01E0D7E092E0A81C85B240F2B63068
:10344000854200DD05462A460221334811F068FC1A
:103450001AE02C48008BB0F5C87F07DD2948008BA7
:10346000B0F5487F02DA2748048B01E040F255248A
:103470004FF4FA7522460421274811F051FC2A46E0
:103480000221254811F04CFC2048007908BB234854
:10349000006840B121481030006820B11F48103842
:1034A000006801280AD1B8F1000F47D1FCF72CFFC2
:1034B0004FF001081120174908703FE0B8F1010FE3
:1034C0003CD1FCF70CFF4FF00008102011490870A8
:1034D00034E00E48407990B910480838006818B1B7
:1034E0000E48001F0068D8B9B9F1000F26D1FCF7CB
:1034F0000BFF4FF001091120064908701EE01AE089
:1035000000000020388E00200C00002077000020F2
:103510000F000020420000200008004028824242A4
:10352000B9F1010F0AD1FCF7E4FE4FF000091020B9
:10353000F749087002E04FF00008C146049830B91E
:10354000F4488079012802D10020019007E0039817
:1035500028B9F048C079012801D100200090012E3F
:103560000FD1EC48007A60B90120EB49C8703220D5
:1035700005F078FD0020E84988700B20E4490870C8
:1035800007E036B9E348007A012802D1E2498870A1
:10359000C870012F0FD1DF48407A60B90120DE49A1
:1035A0008870322005F05EFD0020DB49C8700C20D9
:1035B000D749087007E037B9D648407A012802D1C8
:1035C000D549C8708870D34890F803A090F804B02B
:1035D00040790590CF4880790490CE48C079039017
:1035E000CC48067A477A142005F03CFD9EE600BFE1
:1035F00011E0CA48007801280AD1C9490860322080
:1036000005F030FD0020C749C1F88C02C34908709D
:10361000142005F027FDECE700BF12E00120C249AD
:103620000860C24948704FF4967005F01BFD0020F9
:10363000BF49C1F8A002BD4948704FF4967005F02B
:1036400011FDEBE700BF04E001F059FE142005F086
:1036500009FDF9E700BF04225B21B64813F0BDF86D
:10366000B4480088B449C88513E2B2480088B2491A
:10367000C98D884231D0B048C08DAE49088004223F
:103680005B21AC4813F0CAF8AA48008818B900209A
:1036900013F09AFA21E0A7480088012802D113F01C
:1036A00093FA1AE0A3480088022802D113F08CFA9A
:1036B00013E0A0480088032802D113F085FA0CE03B
:1036C0009C480088042802D113F07EFA05E099484E
:1036D0000088052801D113F077FA9448807C0128EE
:1036E00014D194484088401C92494880084640883C
:1036F000092801DD0920488004225B218D4813F050
:103700008DF88C49887813F0ACFA7BE08748C07C50
:10371000012814D187484088401E864948800846C1
:103720004088012801DA0120488004225B21814879
:1037300013F074F87F49887813F093FA62E07B48BD
:10374000807D012814D17B488088401C794988807D
:1037500008468088092801DD0920888004225B2131
:10376000744813F05BF87349087913F0F5FA49E0EF
:103770006E48C07D012814D16E488088401E6D4976
:10378000888008468088012801DA01208880042288
:103790005B21684813F042F86649087913F0DCFAB7
:1037A00030E06248007D012814D16248C088401C86
:1037B0006049C8800846C088092801DD0920C88002
:1037C00004225B215B4813F029F85A49887913F0E9
:1037D0003EFB17E05548407D012813D15548C0886D
:1037E000401E5449C8800846C088012801DA0120DB
:1037F000C88004225B214F4813F010F84D498879A6
:1038000013F025FB424800781C280FD2DFE800F0B7
:103810000E0F161D242B323940474E555C636A71DA
:1038200078F0F7FEECEBEAE9E8E7E67F2DE100202F
:103830003749087041A013F099F926E10020344976
:10384000087040A013F092F91FE100203049087081
:103850003EA013F08BF918E100202D4908703DA01F
:1038600013F084F911E10020294908703BA013F0FE
:103870007DF90AE10020264908703AA013F076F994
:1038800003E100202249087038A013F06FF9FCE032
:1038900000201F49087037A013F068F9F5E00020F8
:1038A0001B49087035A013F061F9EEE000201849BB
:1038B000087034A013F05AF9E7E0002014490870AA
:1038C00032A013F053F9E0E000201149087032A053
:1038D00013F04CF9D9E000200D49087031A013F025
:1038E00045F9D2E000200A49087031A013F03EF9F2
:1038F000CBE000200649087030A013F037F9C4E08F
:1039000000200349087032A013F030F9BDE0B5E0A3
:1039100042000020770000206D000020D001002030
:103920008C02404200004042A0824042B88D0020FC
:103930000080404244000020388E0020D7D4B6AF2B
:1039400000000000CAD6B6AF00000000C7B0BDF846
:1039500000000000BAF3CDCBD7F30000BAF3CDCB13
:10396000D3D20000CDA3D6B900000000C6F4B6AF94
:1039700000000000D7F3B7D6B2E60000D6D0B7D625
:10398000B2E60000D3D2B7D6B2E60000B2E6B1DBB1
:10399000C9CFC9FD00000000B2E6B1DBCFC2BDB5A2
:1039A00000000000D2A3BFD8C7B0BDF800000000DF
:1039B000D2A3BFD8BAF3CDCB00000000C7B0B7BDCB
:1039C000D3D0D5CFB0ADA3ACC7EBC7E5B3FD0000F6
:1039D000D5CFB0ADD2D1C7E5B3FD000047E03FE0A1
:1039E00037E02FE027E01FE017E00FE007E0FFE7F8
:1039F0000020FC490870FCA013F0B8F845E0002056
:103A0000F8490870FEA013F0B1F83EE00020F54937
:103A10000870FDA013F0AAF837E00020F149087003
:103A2000FBA013F0A3F830E00020EE490870FAA0E4
:103A300013F09CF829E00020EA490870F8A013F080
:103A400095F822E00020E7490870F8A013F08EF8FE
:103A50001BE00020E3490870F7A013F087F814E09A
:103A60000020E0490870F6A013F080F80DE0002077
:103A7000DC490870E4A013F079F806E00020D94989
:103A80000870F1A013F072F800BF00BF142005F019
:103A9000E9FAEAE508B50024002500BF3BE0EC4860
:103AA000007801281DD10020EA490870012C00D1BE
:103AB0000024012D2CD16946E7480EF00DFB0020B3
:103AC000E6490870487001208870C87000200871AD
:103AD0000120487100208871C87108724872002561
:103AE00016E00120DB49087025B96946DA480FF075
:103AF00096F8012564B90120D8490870487088708B
:103B0000C870087148718871C871087248720124C0
:103B1000142005F0A7FAC2E72DED108B84B0002722
:103B2000B846B94600260024A246A34600200290CB
:103B3000002500BFE6E31EE0C9480078C0B90021B7
:103B40004FF4FA7014F0BAFFFCF7B6FB0120C44939
:103B500008700020C3490870C3490870C349087041
:103B60000120C3490860C349C1F88002C249086006
:103B7000142005F077FAC14800780028DCD04AE22A
:103B8000B848007800287CD1BD490870BD4800784D
:103B900020B1012803D0022800D161E0C5E0002156
:103BA0004FF4FA7014F08AFFFCF766FBB648006821
:103BB00018B9B648008BB4490860B34804680BE0F4
:103BC0000A3C642C00DA6424A2B20421B04811F04B
:103BD000A7F80A2005F046FA642C03DDA748007810
:103BE0000128EDD04FF4FA7005F03CFA40F226219E
:103BF0004FF4FA7014F062FF002507E0A048007847
:103C000008B9681CC5B2142005F02CFAA148008838
:103C1000092803DD9F480088142805DBC82D03DA36
:103C2000964800780128E9D000214FF4FA7014F08A
:103C300045FF08E00A34A2B20421954811F070F85B
:103C40000A2005F00FFA9148008BA04203DD8B4853
:103C500000780128EED0C72D01DD14F024FF64E0C8
:103C600000214FF4FA7014F029FFFCF705FB864899
:103C7000006818B98548008B834908608248046849
:103C80000EE06EE00A34B4F57A7F01DD4FF47A7409
:103C9000A2B204217E4811F043F80A2005F0E2F9AF
:103CA000B4F57A7F03DA754800780128EAD04FF43A
:103CB000FA7005F0D7F940F226214FF4FA7014F0AB
:103CC000FDFE002507E06E48007808B9681CC5B203
:103CD000142005F0C7F96F480088092803DB6D48F8
:103CE0000088142805DDC82D03DA6448007801280F
:103CF000E9D000214FF4FA7014F0E0FE08E00A3C2D
:103D0000A2B20421624811F00BF80A2005F0AAF9CA
:103D10005E48008BA04203DA584800780128EED0B4
:103D2000C72D01DD14F0BFFE00BF00BF5948008859
:103D300010B1FCF7A1FA01E014F0B5FE00204849EB
:103D4000087001204749087000204749087047491A
:103D500008700120464908604649C1F8800246497A
:103D600008604748007800283AD14B48807C0028FA
:103D700036DD49480078022832DA4748C07C43499A
:103D8000C8814549C97CAAEB0100002801DB014636
:103D900000E04142022905DA3E490878012113F08A
:103DA000ADFF06463C4890F813A0002E0FDD3046CC
:103DB00015F09FFB41EC190B9FED380B53EC102BCA
:103DC00015F0FEFB41EC180B15F036FB064606F22B
:103DD00043202D49086008460068002864DA61E045
:103DE000D1E061E042000020C7B0B7BDD3D0D5CF4D
:103DF000B0ADA3ACC7EBD0A1D0C4BCDDCABB000042
:103E0000B8B4CEBB6F6B0000C8A5D2BBC2A5000082
:103E1000D7F3D7AA00000000D3D2D7AA0000000031
:103E2000C7EBC7F3BDF8C8EB00000000D4CAD0ED63
:103E3000BDF8C8EB00000000BFAAC3C50000000029
:103E4000B9D8C3C500000000C8A5C8FDC2A50000C0
:103E50000C00002008000020C40800206D00002095
:103E60001200002013000020140000201500002084
:103E7000A482404200004242840242420F000020DD
:103E8000010000200200002030000020388E0020B9
:103E90000008004026000020E48C0020DD2406817C
:103EA0009543E73F00200860FD480068B0F57A7F41
:103EB00003DD4FF47A70FA490860F948008882B24D
:103EC0000421F84810F02CFFF5490968A1F5FA70B3
:103ED00015F00FFB41EC1F0BB0EE4F0AF0EE6F0A2E
:103EE00015F094F8B0EE40DAF0EE60DAEC490968CB
:103EF000A1F5FA7015F0FDFACDE900019DED000B7A
:103F000015F084F8B0EE40FAF0EE60FA9FEDE60BA3
:103F100053EC102B51EC1F0B15F036F941EC1E0B36
:103F200053EC1D2B15F04CFB41EC1C0B9FEDDE0BF5
:103F300053EC102B15F028F941EC1B0B9FEDDC0B1B
:103F400053EC102B15F06CF841EC190BDA48008893
:103F500015F0E6FA41EC1A0B53EC192B15F030FB77
:103F600041EC180B15F098FAD449088008460188EE
:103F70004FF4FA7014F0A2FDD0480088D049488070
:103F8000C74800888880781CC7B2192F06D1CD4851
:103F90000068C043CC49C1F8A4020027CB48807C0C
:103FA00038BB002507E0CA48007808B9681CC5B2CC
:103FB000142005F057F8C7480078012808D1C348F5
:103FC000807C28B9962D03DAC34800780128EAD00E
:103FD000C048007801280CD1BC48807C48B9BE4854
:103FE0000078012805D114F05EFD0C20B449A1F839
:103FF000B600B348C08A00280ADDB148C08A6428E8
:1040000006DAAF49C98A0A3188B205F02BF802E016
:10401000142005F027F8AF480078012804D1AE48F5
:10402000007801283FF4ACADE6E0AC480078E8B990
:104030000020A7490870FCF72FF94FF482714FF464
:10404000FA7014F03BFD0020A5490870A5490870DE
:104050000120A24908700020A34908700120994955
:104060000860A249C1F88002A14908609848007818
:10407000F0BBA048807C00283ADD9E4800780228EA
:104080007CDA9C49CA7C0299881A002801DB014627
:1040900000E04142022906DA03219748007813F034
:1040A0002DFE7F4908609348C07C02907C480088C0
:1040B00082B204217B4810F033FE79490968A1F5EA
:1040C000FA7015F016FA41EC1F0BB0EE4F0AF0EE45
:1040D0006F0A14F09BFFB0EE40DAF0EE60DA704940
:1040E0000968A1F5FA7015F004FACDE9000100E0C5
:1040F00044E09DED000B14F089FFB0EE40FAF0EEC5
:1041000060FA9FED690B53EC102B51EC1F0B15F06F
:104110003BF841EC1E0B53EC1D2B15F051FA41EC12
:104120001C0B9FED610B53EC102B15F02DF841EC9F
:104130001B0B9FED5F0B53EC102B14F071FF41EC48
:10414000190B5D48008815F0EBF941EC1A0B53ECA4
:10415000192B15F035FA41EC180B15F09DF957495C
:104160000880084601884FF4FA7014F0A7FC534801
:104170000088534948804A480088888008F1010037
:1041800000F0FF08B8F1190F08D15948001F006866
:10419000C0435649C1F880024FF000085548807C62
:1041A00038BB002507E04A48007808B9681CC5B24A
:1041B000142004F057FF47480078022808D14D48E2
:1041C000807C28B9642D03DA434800780128EAD0BE
:1041D0004048007802280CD14648807C48B93E48C7
:1041E0000078012805D114F05EFC0A203449A1F8BA
:1041F000B6000A2004F036FF36480078022804D1C1
:104200003548007801283FF410AF1CE136480078AB
:10421000D8B900202E490870FCF73EF84FF482719F
:104220004FF4FA7014F04AFC00202D4908702D4913
:1042300008702A49087001202B490870214908603C
:104240002A49C1F880022A4908602148007830BB19
:104250002A48807C002822DD2848007802281EDABF
:104260002649C97CABEB0100002801DB014600E0D8
:104270004142022906DA03212148007813F03EFD6D
:10428000074908601D4890F813B00548008882B2BD
:104290000421044810F044FD0149096833E095E029
:1042A00030000020000800400000000000407F4077
:1042B000000000000000F03F040000200600002085
:1042C000388E0020A482404200804042E48C0020CE
:1042D000010000200E0000200F000020140000202C
:1042E00012000020130000201500002000004242B0
:1042F00084024242F98C00202B0000200E8D002009
:104300002C000020ABE0A1F5FA7015F0F2F841ECBA
:104310001E0BB0EE4E0AF0EE6E0A14F077FEB0EE11
:1043200040DAF0EE60DAFE490968A1F5FA7015F09E
:10433000E0F841EC1F0BB0EE4F0AF0EE6F0A14F0FC
:1043400065FEB0EE40EAF0EE60EA1FED290B53EC9B
:10435000102B51EC1E0B14F017FF53EC1D2BCDE965
:1043600000019DED000B51EC100B15F029F941EC0B
:104370001C0B1FED330B53EC102B14F005FF41EC1D
:104380001B0B1FED350B53EC102B14F049FE41ECC9
:10439000190BE448008815F0C3F841EC1A0B53ECF4
:1043A000192B15F00DF941EC180B15F075F8DE49D5
:1043B0000880084601884FF4FA7014F07FFBDA4851
:1043C0000088DA494880D6480088888009F10100D1
:1043D00000F0FF09B9F1190F07D1D5480068C043B3
:1043E000D449C1F884024FF00009D348807C38BB1F
:1043F000002507E0D148007808B9681CC5B2142030
:1044000004F030FECE480078032808D1CA48807CEA
:1044100028B9642D03DACB4800780128EAD0C848CF
:10442000007803280CD1C448807C48B9C54800787E
:10443000012805D114F037FB0B20BC49A1F8B600C8
:104440000A2004F00FFEBE480078032804D1BD48BE
:10445000007801283FF4DAAE142004F003FEFFF7E1
:104460006ABB86B000BF96E0B7480088AF49C880F5
:10447000B64800780881B648007848810846C18867
:10448000B44803781022684611F0EBF9152269460A
:10449000B14814F072FCB048C07CB04908800846AE
:1044A0000088F8B108460088AD490880AB4800880C
:1044B000092807DBA9480088142803DC0020A94943
:1044C000087022E0A5480088092803DA0220A549DF
:1044D00008701AE0A1480088142816DD0120A149BF
:1044E000087012E09E480088102803DA02209D49D7
:1044F00008700AE09A480088102803DD01209949D5
:10450000087002E000209749087097480078012859
:1045100036D18B48007820B1022803D003282DD152
:1045200016E02CE08148017A8A4803780822684620
:1045300011F071FA152269468C4814F01EFC8B4864
:10454000C07C8B490870084600787849C88116E01D
:104550007648817A7F4803780822684611F05BFA32
:1045600015226946744814F008FC7348C07C8149E0
:104570000870084600786D49C88100E000BF07E078
:1045800001207D4908606B49C1F8800268490860D4
:10459000142004F067FD67E701B58CB000200A9095
:1045A0000C980C9006F0DEFB0BA80CF048FB0BAA55
:1045B0000121084608F0D1FB00BF00BF00BF06F094
:1045C00009FD0A9000BF00BF6C480078401C6B4991
:1045D000087000BF00BF0A9806F000FD00BF00BFD2
:1045E00000BF0BA8032100220592CDE90621089007
:1045F000104680210C22624BCDE90132CDE9031037
:1046000006200023AFF2A5125EA1009060480CF0D6
:10461000EDFE0BA8032100220592CDE906210890AA
:10462000104680210C225B4BCDE90132CDE903100D
:1046300005200023AFF61F3257A100905A480CF016
:10464000D5FE0BA8032100220592CDE90621089092
:10465000104680210C22554BCDE90132CDE90310E3
:1046600004200023AFF6D33251A1009054480CF03F
:10467000BDFE0BA8032100220592CDE9062108907A
:10468000104680210C224F4BCDE90132CDE90310B9
:10469000072000234C4A4DA100904F480CF0A6FE85
:1046A0000BA8032100220592CDE9062108901046AF
:1046B00080210C22494BCDE90132CDE903100820BD
:1046C0000023474A47A100904A480CF08FFE0BA8F0
:1046D000032100220592CDE9062108901046802191
:1046E0000C22454BCDE90132CDE90310092000230E
:1046F000424A43A1009045480CF078FE0BA80321E4
:1047000000220592CDE906210890104680210C2256
:104710003F4BCDE90132CDE903100520002379E0BC
:10472000300000200400002006000020388E002009
:1047300084024242000042420E8D0020010000200F
:104740000E0000200F0000208A000020A50000209D
:10475000A600002011000020E48C0020260000208C
:1047600028000020020000200C000020F98C00200E
:104770002B0000202C000020A48240426001002079
:104780004C0C00205461736B31207461736B00001A
:10479000880B0020880900204175746F6D6F646577
:1047A000207461736B000000C4080020C406002060
:1047B000436F6E74726F6C207461736B0000000045
:1047C00000060020100F0020553600085461736B5E
:1047D00034207461736B00004C0E0020D411002053
:1047E0004536000843616E73656E64207461736BB7
:1047F0000000000010110020981400201936000855
:1048000052756E4C4544207461736B00D4130020C4
:104810005C170020F64AF7A10090F9480CF0E6FD7D
:104820000BA8032100220592CDE90621089010462D
:1048300080210C22F34BCDE90132CDE903100A208F
:104840000023F14AF1A10090F4480CF0CFFD0BA831
:10485000032100220592CDE906210890104680210F
:104860000C22EF4BCDE90132CDE903100B200023E0
:10487000EC4AED490090ED480CF0B8FD0BA803217F
:1048800000220592CDE906210890104680210C22D5
:10489000E74BCDE9013200230092CDE90310E54A50
:1048A000E5A1E8480CF0A2FD0BA803210022059227
:1048B000CDE906210890104680210C22E24BCDE97B
:1048C000013200230092CDE90310E04AE0A1E34861
:1048D0000CF08CFD0BA8032100220592CDE90621E6
:1048E0000890104680210C22DD4BCDE901320023D7
:1048F0000092CDE90310DB4ADBA1DE480CF076FD27
:104900000BA8032100220592CDE90621089010464C
:1049100080210C22D84BCDE9013200230092CDE951
:104920000310D64AD6A1D9480CF060FD0BA803218C
:1049300000220592CDE906210890104680210C2224
:10494000D34BCDE9013200230092CDE90310D14AC7
:10495000D1A1D4480CF04AFD0BA8032100220592F6
:10496000CDE906210890104680210C22CE4BCDE9DE
:10497000013200230092CDE90310CC4ACCA1CF48EC
:104980000CF034FD0BA8032100220592CDE906218D
:104990000890104680210C22C94BCDE90132CDE9A7
:1049A00003100D200023C74AC7A10090C9480CF08E
:1049B0001DFD0BA8032100220592CDE906210890D8
:1049C000104680210C22C44BCDE90132CDE9031001
:1049D0000E200023C14AC2A10090C4480CF006FD7D
:1049E0000BA8032100220592CDE90621089010466C
:1049F00080210C22BE4BCDE90132CDE903100F20FE
:104A00000023BC4ABCA10090BE480CF0EFFC00BFE4
:104A100000BF00BF06F0DEFA0A9000BF00BFBA4830
:104A20000078401EB849087008460078A0B9B74819
:104A30000088002809DD00BF00BF0A9806F0CEFA02
:104A400000BF00BF08F072FD0DE000BF00BF0A9874
:104A500006F0C4FA00BF06E000BF00BF0A9806F0E7
:104A6000BDFA00BF00BF00BF0BA900200CF012FE72
:104A70000DB000BD10B58AB00024A82004F06CFA77
:104A80004FF4A06001F0A8F900F076FA14F0B4F841
:104A900011F03CFD00F0E8FD00F05BFE00F0D4FEFC
:104AA00000F05FFF01F00BF801F008F94FF4165029
:104AB00004F0FFFA4FF4165011F070FF4FF4E1309C
:104AC00012F0AAFC4FF4165011F08CF84FF4E130BC
:104AD00012F012FC0FF05AFC002342F21072042173
:104AE0008B480FF071FC002342F2107202218848BB
:104AF0000FF06AFC4FF4FA71042001F037F913F05B
:104B0000BBF813F0CFF813F0E3F8002006231A46A1
:104B10000521009000F038FC002006231A460521EC
:104B2000009000F0D3FA55207A49887000F0E7FB36
:104B300000207849887078A012F018F82F20774963
:104B4000A1F8400009A807F0DFFE00BF00BF00BFCA
:104B500006F040FA044600BF00BF6B480078401CD6
:104B60006949087000BF00BF204606F037FA00BF51
:104B700000BF00BF09A8032100220592CDE906214C
:104B80000890104680210C22654BCDE90132CDE919
:104B9000031003200023AFF2FF5262A1009064488B
:104BA0000CF024FC00BF00BF00BF06F013FA04465F
:104BB00000BF00BF54480078401E534908700846A3
:104BC0000078A0B951480088002809DD00BF00BF67
:104BD000204606F003FA00BF00BF08F0A7FCB0E0D3
:104BE00000BF00BF204606F0F9F900BFA9E0A1E030
:104BF000EF35000852464944207461736B00000091
:104C000098160020201A00200333000859414F4B0A
:104C10004F4E47207461736B000000005C19002048
:104C2000E41C0020AD1C0008F8300008201C002007
:104C3000A81F0020F31E00085461736B36207461B6
:104C4000736B0000E41E00206C2200209D1C0008F5
:104C50005461736B37207461736B0000A8210020CE
:104C600030250020B71A00085461736B3820746136
:104C7000736B00006C240020F42700202518000826
:104C80005461736B39207461736B0000302700200E
:104C9000B82A0020791700085461736B31302074F2
:104CA00061736B00F42900207C2D00201917000887
:104CB0005461736B3131207461736B00B82C002028
:104CC00040300020591600085461736B3132207453
:104CD00061736B007C2F0020043300203B1600081A
:104CE0005461736B3133207461736B004032002068
:104CF000C8350020D11500085461736B313520741C
:104D000061736B0004350020600100202401002045
:104D1000000800406800002020000000388E0020BD
:104D2000000400207374617274207461736B00005E
:104D30003C03002000BF00BF204606F04FF900BF33
:104D400000BF00BF09A808F0A8F800200AB010BDF5
:104D5000704700BFFEE700BFFEE700BFFEE700BFF1
:104D6000FEE77047704700000CB5002001900090EE
:104D70007648006840F480307449086000BF73488A
:104D8000006800F4003000900198401C01900098E9
:104D900018B90198B0F5A04FF1D16C48006800F443
:104DA000003010B10120009001E000200090009838
:104DB000012846D165484030006840F08050634982
:104DC000403108606248006840F440406049086033
:104DD0005E48083000685D49083108600846006890
:104DE00040F4004008600846006840F4A0500860A5
:104DF0005848091F0860081F006840F08070091FAC
:104E0000086000BF5148006800F000700028F9D029
:104E100040F20570504908604C480830006820F0A6
:104E200003004A49083108600846006840F0020063
:104E3000086000BF45480830006800F00C000828F2
:104E4000F8D10CBD10B54548006840F470004349E6
:104E500008603E48006840F001003C4908600020BE
:104E60003A4908310860394800683D4908403749E7
:104E700008603C48091D0860081F006820F4802075
:104E8000091F0860002031490C310860FFF76CFFF2
:104E90004FF0006031498039086010BD70B50020C6
:104EA0000022022300240221284D08352D6805F038
:104EB0000C0020B1042806D0082834D107E02A4D80
:104EC0002A4E356033E02A4D284E35602FE01F4DC5
:104ED0002D1D2D68C5F380541C4D2D1D2D6805F02A
:104EE0003F0154B1224DB5FBF1F5184E361D366821
:104EF000C6F3881605FB06F209E01B4DB5FBF1F57C
:104F0000124E361D3668C6F3881605FB06F20F4DA5
:104F10002D1D2D68C5F301456D1C6B00B2FBF3F52B
:104F2000124E356003E0104D104E356000BF00BFDB
:104F3000064D08352D68C5F303150E4E705D0B4DFB
:104F40002D68C540094E356070BD00000038024034
:104F50000070004008544007003C024088ED00E02B
:104F6000FFFFF6FE103000240024F400540000205F
:104F700000127A00580000201CB50121532002F0D5
:104F8000E9F94FF48470009001208DF804000020AE
:104F90008DF8060003208DF8050001208DF807002C
:104FA0006946414801F038FF4FF4407000900120FD
:104FB0008DF8040000208DF8060003208DF8050010
:104FC00001208DF807006946384801F025FF0320CD
:104FD000009001208DF8040000208DF806000320C9
:104FE0008DF8050001208DF807006946304801F072
:104FF00013FF2020009001208DF8040000208DF880
:10500000060003208DF8050001208DF80700694691
:10501000284801F001FF00202749086001202749A6
:10502000C1F8A0022649086026490860091D0860E9
:105030001CBD10B5044600201F4914310860322001
:1050400004F010F801202049C1F8A002322004F039
:1050500009F80020184914310860322004F002F8E1
:1050600001201949C1F8A002322003F0FBFF002003
:10507000114914310860322003F0F4FF0120124975
:10508000C1F8A002322003F0EDFF00200E49C1F864
:10509000A002322003F0E6FF01200B49C1F8A00274
:1050A000204603F0DFFF10BD000002400004024074
:1050B00000100240001802408C0240420080404232
:1050C000A482404280024242000040422DE9F04169
:1050D0008AB004460D4616461F46DDF84080012181
:1050E000084602F037F90121480602F07CF94FF436
:1050F000C050089002208DF8240000208DF8260072
:1051000003208DF8250001208DF8270008A9F74815
:1051100001F082FE09220B21F44801F008FF092268
:105120000C21F24801F003FF00208DF81A008DF8E1
:105130001B008DF81C0001208DF81D0000208DF84B
:105140001E008DF81F008DF816808DF817408DF821
:1051500018608DF81950ADF8147005A9E44801F0F5
:10516000F6F800208DF80E008DF80F0001208DF864
:1051700010000020ADF80400ADF80600ADF80800FE
:10518000ADF80A00ADF80C0001208DF8110001A85F
:1051900001F067F901220221D54801F061FC1420D9
:1051A0008DF8000001208DF8010000208DF802002C
:1051B00001208DF80300684600F013FE00200AB0BD
:1051C000BDE8F081F0B585B007460D4600241020FB
:1051D0000090019000208DF808008DF809008DF8EE
:1051E0000A5000BF05E0395D0DF10B000155601C50
:1051F00084B2AC42F7DB6946BD4801F021FA0646AD
:10520000002401E0601C84B23146B94801F0B0FAD4
:1052100018B940F6FF708442F4DB40F6FF70844218
:1052200002DB012005B0F0BD0020FBE710B586B021
:10523000002401AA0021AE4801F0F7FA00BF0BE0FC
:105240009DF80F0080F0FF00204100F0010080F089
:105250000100A8490855641C082CF1DB00240DE06E
:105260009DF8100080F0FF00204100F0010080F068
:105270000101A04A04F108001154641C022CEFDB68
:105280009DF81100552803D102219B48FFF79AFF92
:105290009848007808B913F0D4FB9648407870B964
:1052A0009648007810B913F0C1FB08E093480078E5
:1052B000012804D19248007808B913F018FC06B010
:1052C00010BD30B585B005460021894801F030FB9E
:1052D00010B9002005B030BD6A460021844801F0B5
:1052E000A4FA002404E00DF10B00005D2855641CB5
:1052F0009DF80A00A042F6D89DF80A00EAE738B502
:105300000024002500BF0FE000257E48005D002836
:1053100000DD01259DF8000005FA04F10843C0B244
:105320008DF80000601CC4B2082CEDDB002411E0F5
:105330000025744904F10800085C002800DD0125FF
:105340009DF8010005FA04F10843C0B28DF8010090
:10535000601CC4B2022CEBDB9DF8000066490978A2
:10536000884205D19DF801006349497888420AD0F6
:105370009DF80000604908709DF801004870032105
:105380005D48FFF71FFF38BD2DE9F0418AB00446A4
:105390000D4616461F46DDF840800121022001F02F
:1053A000D9FF01214FF0C06002F01DF86020089085
:1053B00002208DF8240000208DF8260003208DF8AF
:1053C000250001208DF8270008A94F4801F024FD91
:1053D000092205214C4801F0AAFD092206214A486C
:1053E00001F0A5FD00208DF81A008DF81B008DF846
:1053F0001C0001208DF81D0000208DF81E008DF886
:105400001F008DF816808DF817408DF818608DF804
:105410001950ADF8147005A93C4800F098FF0E2013
:105420008DF80E0000208DF80F0001208DF810007F
:105430000020ADF80400ADF80600ADF80800ADF8A6
:105440000A00ADF80C0001208DF8110001A801F050
:1054500008F8012202212D4801F002FB40208DF8BE
:10546000000001208DF8010002208DF802000120CB
:105470008DF80300684600F0B4FC00200AB0BDE8D7
:10548000F08170B586B000240026002501AA002115
:105490001E4801F0CAF90198012811D100BF06E0A9
:1054A0000DF10F00005D1A490855601CC4B29DF84B
:1054B0000E00A042F4DC164800781649087075E02A
:1054C000019802282CD1002406E00DF10F00005DA8
:1054D00011490855601CC4B29DF80E00A042F4DCCE
:1054E0000D4800780D49087060E00000000002409F
:1054F0000064004077000020680000200C000020BD
:105500000F0000206D0000200004024000680040F1
:105510008C000020A400002094000020A5000020A2
:105520000198032811D1002406E00DF10F00005D61
:1055300048490855601CC4B29DF80E00A042F4DC36
:10554000444800784449087030E0019804282DD17F
:10555000002406E00DF10F00005D40490855601C75
:10556000C4B29DF80E00A042F4DC3C4840783B49B0
:10557000097840EA0126002414E0072C09DC012008
:10558000A04030406100C1F10F018840284385B23E
:1055900006E00120A040304061000F39084105437A
:1055A000601CC4B2102CE8DB2D48058006B070BD2D
:1055B000F0B585B007460D460024142000900190F8
:1055C00000208DF808008DF809008DF80A5000BF02
:1055D00005E0395D0DF10B000155601C84B2AC4251
:1055E000F7DB69461F4801F02BF80646002401E06E
:1055F000601C84B231461B4801F0BAF818B940F675
:10560000FF708442F4DB40F6FF70844202DB01202D
:1056100005B0F0BD0020FBE730B585B005460021A0
:10562000104801F085F910B9002005B030BD6A4678
:1056300000210C4801F0F9F8002404E00DF10B0002
:10564000005D2855641C9DF80A00A042F6D89DF81C
:105650000A00EAE79C000020A6000020810000204C
:105660008A0000200068004000B591B00121880543
:1056700001F070FE0021FB4803F018F9F94803F02F
:1056800039F800200190F8480290F8480390002073
:1056900004905A200590002006904FF480600790F7
:1056A000400008900990C0100A9000200C90032040
:1056B0000D9000040B9000200E900F9001A9E94876
:1056C00003F0BAF801221021E64803F07CF9012129
:1056D000E44803F0EBF838208DF8400003208DF803
:1056E000410002208DF8420001208DF8430010A8EF
:1056F00000F077FB11B000BD2DE9F0410026DC4938
:10570000D84803F07DF910B300241AE0002509E021
:1057100005EB4500D54901EB400030F81400064484
:10572000681CC5B21E2DF3DB1E2096FBF0F7384631
:1057300013F0DFFECF4A02EBC40203C20026601C56
:10574000C4B2032CE2DBCA49C64803F083F9BDE8C2
:10575000F08100B591B00121480501F0FBFD002169
:10576000C54803F0A3F8C44802F0C4FF4FF000603E
:105770000190C2480290C248039040200490FA2051
:105780000590002006904FF480600790002008905C
:1057900009904FF480700A9000200C9003200D9027
:1057A00000040B9000200E900F9001A9B24803F066
:1057B00043F80021B04803F079F801221021AE48E7
:1057C00003F001F90021AC48183803F06FF8AA483B
:1057D000183802F08FFF4FF000600190A748029048
:1057E000A848039000200490FA200590002006901D
:1057F0004FF4806007900020089009904FF480706B
:105800000A9000200C9003200D9000040B900020C3
:105810000E900F9001A99848183803F00DF8012157
:105820009548183803F042F811208DF84000002008
:105830008DF8410001208DF842008DF8430010A83A
:1058400000F0CFFA11B000BD00B591B001214805BC
:1058500001F080FD00218848483803F027F8864889
:10586000483802F047FF4FF00060019086480290F0
:105870008648039040200490FA200590002006906E
:105880004FF4806007900020089009904FF48070DA
:105890000A9000200C9003200D9000040B90002033
:1058A0000E900F9001A97448483802F0C5FF0021FE
:1058B0007148483802F0FAFF012210216E4848383A
:1058C00003F081F800216C48783802F0EFFF6A4855
:1058D000783802F00FFF4FF0006001906A480290A4
:1058E0006B48039000200490FA2005900020069059
:1058F0004FF4806007900020089009904FF480706A
:105900000A9000200C9003200D9000040B900020C2
:105910000E900F9001A95848783802F08DFF0121B0
:105920005548783802F0C2FF0E208DF84000022062
:105930008DF8410001208DF842008DF8430010A839
:1059400000F04FFA11B000BD10B5044621464A4898
:10595000483802F0CCFF01214748483802F0A6FF42
:1059600010BD00B591B00121480501F0F3FC002104
:105970004148303802F09AFF3F48303802F0BAFE12
:105980004FF000600190434802904348039040204C
:105990000490FA200590002006904FF48060079054
:1059A0000020089009904FF480700A9000200C901D
:1059B00003200D9000040B9000200E900F9001A981
:1059C0002D48303802F038FF00212B48303802F0E3
:1059D0006DFF012210212848303802F0F4FF002129
:1059E0002548603802F062FF2348603802F082FEEA
:1059F0004FF0006001902748029028480390002053
:105A00000490FA200590002006904FF480600790E3
:105A10000020089009904FF480700A9000200C90AC
:105A200003200D9000040B9000200E900F9001A910
:105A30001148603802F000FF01210F48603802F081
:105A400035FF0F208DF8400003208DF84100012024
:105A50008DF842008DF8430010A800F0C2F911B093
:105A600000BD0000106402404C2001406847002047
:105A70002080001020480020A06002400444004024
:105A8000264B00202C4A0020044800400E4F0020E6
:105A9000144E0020044C00403848002032490020B9
:105AA00010B504460421784801F032FA21467748BF
:105AB00002F01DFF0121754802F0F8FE10BD00B58F
:105AC00091B00121880501F045FC0021704802F0E9
:105AD000EDFE6F4802F00EFE4FF0206001906D4821
